:020000040800F2
:10000000788A0020DD020008E5020008E702000807
:10001000E9020008EB020008ED0200080000000001
:10002000000000000000000000000000DD010008EA
:10003000F102000800000000AD020008BD02000847
:10004000F7020008F7020008F7020008F7020008AC
:10005000F7020008F7020008F7020008F70200089C
:10006000F7020008F7020008F7020008F70200088C
:10007000F7020008F7020008F7020008F70200087C
:10008000F7020008F7020008F7020008F70200086C
:10009000F7020008F7020008F7020008F70200085C
:1000A000F7020008F7020008F7020008F70200084C
:1000B000F7020008F7020008F7020008F70200083C
:1000C000F7020008F7020008F7020008F70200082C
:1000D000F7020008F7020008F7020008F70200081C
:1000E000F7020008F7020008F7020008F70200080C
:1000F000F7020008F7020008F7020008F7020008FC
:10010000F7020008F7020008F7020008F7020008EB
:10011000F7020008F7020008F7020008F7020008DB
:10012000F7020008F7020008F7020008F7020008CB
:10013000F7020008F7020008F7020008F7020008BB
:10014000F7020008F7020008F7020008F7020008AB
:10015000F7020008F7020008F7020008F70200089B
:10016000F7020008F7020008F7020008F70200088B
:10017000F7020008F7020008F7020008000000007C
:10018000F7020008F7020008F7020008F70200086B
:10019000F7020008F7020008F7020008F70200085B
:1001A000F7020008F7020008F7020008F70200084B
:1001B000F7020008F7020008F7020008F70200083B
:1001C000F7020008F7020008DFF80CD000F00CF985
:1001D00000480047713D0008788A00201EF0040F97
:1001E0000CBFEFF30880EFF30980816911F8021C5E
:1001F00000294DD101B590E80F10E047BDE800504F
:10020000CCF80000314B93E80600914208BF7047DC
:100210001A6041B91EF0100F2CD12D4B186820F038
:100220000100186026E0ACF1200C1EF0100F08BF92
:10023000ACF1400C81F822E0C1F838C006B40846A1
:1002400004F06EFF06BC50B90C46012003F01CFF01
:10025000204B5A681A60002194F922E0DAE7D1F8BD
:1002600038C091F922E01EF0100F08BFACEC108AE4
:100270008CE8F00F1400A06B94F922E01EF0100F30
:1002800008BFB0EC108AB0E8F00F80F3098870471F
:10029000114A13689942FAD801B552F821C00FC823
:1002A000E047BDE80050CCF80000704701B504F00D
:1002B000BBFABDE80140EFF3098CA3E701B505F0F7
:1002C00013F8BDE80140EFF3098C9BE7180000200C
:1002D00034EF00E018000020A867000806488047B7
:1002E00006480047FEE7FEE7FEE7FEE7FEE7FEE71B
:1002F000FEE7FEE7FEE7FEE7392E0008C901000829
:100300002DE9F05F0546002092469B46884606464A
:10031000814640241BE0284641464746224600F0DD
:1003200053F853465A46C01A914110D31146184605
:10033000224600F03AF82D1A67EB01084F46224694
:100340000120002100F031F817EB00094E41201E7A
:10035000A4F10104DFDC484631462A464346BDE8A5
:10036000F09F40EA01039B0703D009E008C9121F70
:1003700008C0042AFAD203E011F8013B00F8013B5F
:10038000521EF9D27047D2B201E000F8012B491E8B
:10039000FBD270470022F6E710B513460A46044622
:1003A0001946FFF7F0FF204610BD202A04DB203A53
:1003B00000FA02F1002070479140C2F1200320FAB8
:1003C00003F3194390407047202A04DB203A21FAB6
:1003D00002F00021704721FA02F3D040C2F120025E
:1003E00091400843194670471CB5094800900948D8
:1003F00001900546009C06E0E06840F0010394E8A7
:10040000070098471034AC42F6D3FFF7E1FE000036
:10041000186800083868000880B582B00020019094
:1004200042F20000C4F202004FF4006100F094FFB9
:10043000012805D1FFE7019840F001000190FFE796
:10044000019802B080BD000080B588B0FFE743F698
:100450003000C4F20200016841F48071016000685C
:1004600000F4807002900298FFE74FF40060039060
:10047000002001900490059042F20000C4F20200B6
:1004800003A900F071FD019808B080BD00000000D4
:1004900083B04EF61450CEF20000006880030028AE
:1004A00001D5FFE71AE0BFF34F8FBFF36F8F4EF612
:1004B0005071CEF2000100200860BFF34F8FBFF3F0
:1004C0006F8F4EF61451CEF20001086840F40030F0
:1004D0000860BFF34F8FBFF36F8FFFE74EF61450E6
:1004E000CEF200000068C003002801D5FFE73CE021
:1004F0004EF68451CEF2000100200860BFF34F8F0A
:100500004EF68050CEF20000006802900298C0F3D0
:100510004E300190FFE70298C0F3C9000090FFE75A
:1005200001990098800761F34D104EF66071CEF28C
:10053000000108600098411E00910028F0D1FFE7FB
:100540000198411E01910028E5D1FFE7BFF34F8FCD
:100550004EF61451CEF20001086840F48030086075
:10056000BFF34F8FBFF36F8FFFE703B070470000FB
:10057000FFE7FEE700000000FFE7FEE700000000E5
:1005800082B001904FF68040C2F20000007818B9A6
:10059000FFE7002000900EE00199C1F3C6224FF65C
:1005A0000040C2F20000805CC1F30221C84000F0AC
:1005B00001000090FFE7009802B0704700000000C3
:1005C00080B586B04FF68040C2F20000806903908B
:1005D000FFE700F039F904900498039988422CD27F
:1005E000FFE7EFF3108005900598029072B64FF682
:1005F0008040C2F20000806901900198039988420E
:100600000ED1FFE704984FF68041C2F200018861E5
:10061000086901300861BFF35F8F0120009002E09C
:1006200000200090FFE7029810B9FFE762B6FFE7ED
:10063000009808B9FFE701E00CE0FFE7049A4FF6E5
:100640008040C2F20000183003A903F0CDF8002862
:10065000BFD0FFE7049806B080BD00000000000096
:1006600080B588B00590049103920598FFF788FF44
:1006700018B9FFE7012006901CE0FFF7A1FF0290E8
:10068000BDF814000590EFF305800790079A0598D0
:1006900040F40021002A18BF08460590059840F054
:1006A00040700299049A039B00F056F8019001985B
:1006B0000690FFE7069808B080BD0000000000002B
:1006C00080B58AB0DDF830C007900691059204939A
:1006D0000798FFF755FF18B9FFE70120089037E0AA
:1006E000FFF76EFF0390BDF81C000790EFF3058045
:1006F0000990099A079840F40021002A18BF08467B
:10070000079000F019FC01464FF4E02000EA014098
:10071000029007980299084340F080700399069A66
:10072000059B00F019F80190019818B9FFE7002027
:1007300008900DE002980121C0F2002108430399BE
:10074000049A0C9B00F008F8019001980890FFE7CC
:1007500008980AB080BD000080B58CB00A9009915D
:100760000892079307200590FFE70598002863D0BB
:10077000FFE700F0EDFB0490049800F03F014FF616
:100780000000C2F2000000EB0110069004994FF443
:10079000700000EA813001900A9801990843099A93
:1007A0004FF0805101EAD2010843089A4FF00051FE
:1007B00001EA92010843079A4FF0804101EA520191
:1007C000084340F00060039006980C30039901F054
:1007D000FBFF03909DF80F004007002827D5FFE797
:1007E000039880F000400390039800F000400290CE
:1007F000099820F00040029908430699086008987B
:1008000020F000400299084306994860079820F0BC
:100810000040029908430699886006980C300399B5
:1008200002F026FF01F09CFE01200B9009E0FFE79B
:1008300005980138059098E701F086FE00200B909E
:10084000FFE70B980CB080BD41F20400CEF200002F
:10085000006870470000000080B582B001900199E7
:100860004FF20130C0F201000022FFF7F9FE02B0A2
:1008700080BD00000000000080B582B001900199A9
:100880004FF20530C0F202000022FFF7E9FE02B08D
:1008900080BD00000000000080B582B00190019989
:1008A0004FF473400022FFF7DBFE02B080BD000072
:1008B00080B582B0019001994FF20330C0F202007E
:1008C0000022FFF7CDFE02B080BD00000000000056
:1008D00080B582B0019001994FF20D50C0F2020034
:1008E0000022FFF7BDFE02B080BD00000000000046
:1008F00080B582B0019001994FF471400022FFF75A
:10090000AFFE02B080BD000080B582B001900091C2
:100910000199009A4FF21910FFF7A2FE02B080BDB4
:1009200080B582B0019001994FF20610C0F201002B
:100930000022FFF795FE02B080BD0000000000001D
:1009400080B582B0019001994FF21310C0F20100FE
:100950000022FFF785FE02B080BD0000000000000D
:1009600080B54FF20110C0F2010000221146FFF7DE
:1009700077FE80BD0000000080B54FF20210C0F28B
:10098000020000221146FFF76BFE80BD0000000050
:1009900080B54FF20710C0F2010000221146FFF7A8
:1009A0005FFE80BD0000000080B54FF20810C0F26D
:1009B000020000221146FFF753FE80BD0000000038
:1009C00080B586B005900491039202930599049A2C
:1009D000039B0298EC46CCF800004FF20100C0F2F5
:1009E0000200FFF76DFE06B080BD000000000000B1
:1009F00080B582B0019000910199009A4FF20400F5
:100A0000C0F20200FFF72CFE02B080BD0000000023
:100A100080B584B00390029101920399029A019BE0
:100A2000EC460020CCF800004FF20500C0F20200B6
:100A3000FFF746FE04B080BD80B586B005900491F6
:100A4000039202930599049A039B0298EC46CCF812
:100A500000004FF20300C0F20200FFF731FE06B0C3
:100A600080BD00000000000080B584B003900291BA
:100A700001920399029A019BEC460020CCF80000F9
:100A80004FF20200C0F20200FFF71AFE04B080BD70
:100A900080B584B00390029101920399029A019B60
:100AA000EC460020CCF800004FF43C30FFF708FE85
:100AB00004B080BD0000000080B582B001900199B3
:100AC0004FF60810C0F202000022FFF7C9FD02B085
:100AD00080BD00000000000080B582B00190009150
:100AE0000199009A4FF60320C0F20200FFF7B8FD0B
:100AF00002B080BD0000000080B582B0019000917E
:100B00000199009A4FF47A40FFF7AAFD02B080BD28
:100B100080B586B005900491039202930599049ADA
:100B2000039B0298EC46CCF800004FF60C20C0F274
:100B30000100FFF7C5FD06B080BD00000000000009
:100B400080B584B00390029101920399029A019BAF
:100B5000EC460020CCF800004FF60D20C0F2020059
:100B6000FFF7AEFD04B080BD80B582B00190019961
:100B70004FF60E20C0F202000022FFF771FD02B016
:100B800080BD00000000000080B582B0019000919F
:100B90000199009A4FF60920C0F20200FFF760FDAC
:100BA00002B080BD0000000080B582B001900091CD
:100BB0000199009A4FF60A20C0F20200FFF750FD9B
:100BC00002B080BD0000000080B582B001900091AD
:100BD0000199009A4FF60B20C0F20200FFF740FD8A
:100BE00002B080BD0000000080B582B0019000918D
:100BF0000199009A4FF61020C0F20200FFF730FD75
:100C000002B080BD0000000080B586B00590049160
:100C10008DF80F2002930599049A9DF80F300298E1
:100C2000EC46CCF800004FF60620C0F20100FFF7BA
:100C300047FD06B080BD000080B584B003900291EE
:100C400001920399029A019BEC460020CCF8000027
:100C50004FF60720C0F20200FFF732FD04B080BD5E
:100C600080B582B0019001994FF60820C0F20200D1
:100C70000022FFF7F5FC02B080BD0000000000007C
:100C800080B582B0019000910199009A4FF60F2033
:100C9000C0F20200FFF7E4FC02B080BD00000000DB
:100CA00080B582B0019001994FF20870C0F2020045
:100CB0000022FFF7D5FC02B080BD0000000000005C
:100CC00080B582B0019000910199009A4FF20970AD
:100CD000C0F20200FFF7C4FC02B080BD00000000BB
:100CE00080B582B0019000910199009A4FF20C708A
:100CF000C0F20200FFF7B4FC02B080BD00000000AB
:100D000080B582B0019001994FF60800C0F2020050
:100D10000022FFF7A5FC02B080BD0000000000002B
:100D200080B582B0019000910199009A4FF216208F
:100D3000C0F20300FFF794FC02B080BD0000000089
:100D400080B584B0039002910192019848B1FFE709
:100D50000399019A4FF22C20C0F20200FFF780FCA9
:100D600008E00399029A4FF20320C0F20200FFF755
:100D700077FCFFE704B080BD80B582B00190019997
:100D80004FF21C20C0F202000022FFF769FC02B003
:100D900080BD00000000000080B582B0019000918D
:100DA0000199009A4FF47240FFF75AFC02B080BDDF
:100DB00080B54FF21A20C0F2010000221146FFF761
:100DC0004FFC80BD0000000080B582B00190009112
:100DD0000199009A4FF47440FFF742FC02B080BDC5
:100DE00080B582B0019000910199009A4FF20140C4
:100DF000C0F20100FFF734FC02B080BD000000002B
:100E000080B582B0019000910199009A4FF20240A2
:100E1000C0F20200FFF724FC02B080BD0000000019
:100E200080B586B005900491039202930599049AC7
:100E3000039B0298EC46CCF800004FF20940C0F248
:100E40000200FFF73DFC06B080BD0000000000007E
:100E500080B582B0019001994FF20840C0F20200C3
:100E60000022FFF7FDFB02B080BD00000000000083
:100E700080B582B0019001994FF21520C0F20200B6
:100E80000022FFF7EDFB02B080BD00000000000073
:100E900080B584B00390029101920399029A019B5C
:100EA000EC460020CCF800004FF20120C0F2010017
:100EB000FFF706FC04B080BD80B582B001900199B7
:100EC0004FF21820C0F203000022FFF7C9FB02B066
:100ED00080BD00000000000080B582B00190019943
:100EE0004FF21920C0F202000022FFF7B9FB02B056
:100EF00080BD00000000000080B582B0019000912C
:100F00000199009A4FF21720C0F20300FFF7A8FBE7
:100F100002B080BD0000000080B582B00190009159
:100F20000199009A4FF20160C0F20200FFF798FBAE
:100F300002B080BD0000000080B54FF68040C2F2D4
:100F40000000013002F03CFD80BD00000000000008
:100F500080B54FF68040C2F20000043002F008FD78
:100F600080BD00000000000090B00F900E910020A6
:100F70000D900C900B900A900D90FFE70D980F28A4
:100F800000F2E681FFE70D99012088400C900E9851
:100F900000680C9908400B900B980C99884240F01F
:100FA000D281FFE70E98406800F00300012807D0C7
:100FB000FFE70E98406800F0030002282FD1FFE7FA
:100FC0000F9880680A900D984100032000FA01F103
:100FD0000A9888430A900E98C0680D99490000FA53
:100FE00001F10A9808430A900A980F9988600F98AF
:100FF00040680A900D99012000FA01F10A9888438F
:101000000A900E984068C0F300100D9900FA01F1A3
:101010000A9808430A900A980F994860FFE70E98CB
:10102000406800F00300032818D0FFE70F98C0685D
:101030000A900D984100032000FA01F10A988843B4
:101040000A900E9880680D99490000FA01F10A98FB
:1010500008430A900A980F99C860FFE70E98406805
:1010600000F00300022826D1FFE70F980D996FF0DA
:10107000030202EA51010844006A0A900D9800F048
:10108000070081000F2000FA01F10A9888430A90B6
:101090000E9800690D9901F00701890000FA01F12D
:1010A0000A9808430A900A980F990D9B02EA530286
:1010B00011440862FFE70F9800680A900D984100FC
:1010C000032000FA01F10A9888430A900E984068BC
:1010D00000F003000D99490000FA01F10A98084355
:1010E0000A900A980F9908600E9880798007002866
:1010F00000F02881FFE7FFE743F64400C4F2020056
:10110000016841F480410160006800F4804009906A
:101110000998FFE70D9820F0030043F60801C4F298
:10112000010140580A900D9800F0030081000F2043
:1011300000FA01F10A9888430A900F980021C4F23E
:101140000201884203D1FFE7002008907AE00F985F
:1011500040F20041C4F20201884203D1FFE70120BE
:1011600007906CE00F9840F60001C4F2020188423B
:1011700003D1FFE7022006905EE00F9840F60041A1
:10118000C4F20201884203D1FFE70320059050E03A
:101190000F9841F20001C4F20201884203D1FFE737
:1011A0000420049042E00F9841F20041C4F2020191
:1011B000884203D1FFE70520039034E00F9841F601
:1011C0000001C4F20201884203D1FFE70620029029
:1011D00026E00F9841F60041C4F20201884203D193
:1011E000FFE70720019018E00F9842F20001C4F2D7
:1011F0000201884203D1FFE7082000900AE00F991E
:1012000042F20042C4F202020A20914208BF0920C1
:101210000090FFE700980190FFE701980290FFE738
:1012200002980390FFE703980490FFE70498059065
:10123000FFE705980690FFE706980790FFE70798F5
:101240000890FFE70898C0B20D9901F003018900EA
:1012500000FA01F10A9808430A900A980D9921F0C2
:10126000030143F60802C4F20102885043F6084025
:10127000C4F2010000680A900B990A9888430A900A
:101280000E988079C006002805D5FFE70B990A98CB
:1012900008430A90FFE70A9843F60841C4F20101A7
:1012A000086043F60C40C4F2010000680A900B99F4
:1012B0000A9888430A900E9880798006002805D500
:1012C000FFE70B990A9808430A90FFE70A9843F64C
:1012D0000C41C4F20101086043F60440C4F201006D
:1012E00000680A900B990A9888430A900E988079B2
:1012F0008007002805D5FFE70B990A9808430A9054
:10130000FFE70A9843F60441C4F20101086043F67E
:101310000040C4F2010000680A900B990A988843C3
:101320000A900E988079C00728B1FFE70B990A98B8
:1013300008430A90FFE70A9843F60041C4F201010E
:101340000860FFE7FFE7FFE70D9801300D9015E615
:1013500010B070470000000082B00190ADF802109C
:1013600001980069BDF80210084204D0FFE701208F
:101370008DF8010003E000208DF80100FFE79DF8E3
:10138000010002B07047000082B00190ADF8021079
:101390008DF801209DF8010028B1FFE7BDF802009B
:1013A0000199886105E0BDF8020000040199886197
:1013B000FFE702B07047000080B582B002F024FD64
:1013C000022804D1FFE702F043FD019024E040F23F
:1013D0000000C2F200000068800B0090FFE7009858
:1013E00088B1FFE700BF00BF00BF00BF00BF00BF64
:1013F00000BF00BF00BF00BF00BF00BFFFE70098F5
:1014000001380090EBE740F2B001C2F20001086839
:10141000013008600190FFE7019802B080BD000034
:1014200080B543F60041C4F20201086840F4007040
:101430000860086840F480700860032000F090F8AD
:101440000F2000F005F800F087F8002080BD0000B4
:1014500081B00090002001B0704700000000000043
:1014600080B582B00190019840784EF69851CEF246
:10147000000108600198007898B3FFE70198406880
:101480004EF69C51CEF200010860DDF804C0CDF8A4
:1014900000C09CF80C0000079CF80B1040EA0160AB
:1014A0009CF800109CF808209CF809309CF80AE091
:1014B00040EACE409CF80DE040EA8E409CF80EE0F9
:1014C00040EA4E409CF80FC040EA0C4040EA03203E
:1014D00040EA420008434EF6A051CEF200010860F7
:1014E0000BE04EF69C51CEF20001002008604EF653
:1014F000A051CEF200010860FFE702B080BD0000FD
:10150000BFF35F8F4EF62451CEF20001086820F43D
:10151000803008604EF69451CEF200010020086041
:10152000704700000000000081B00090009840F07B
:1015300001004EF69451CEF2000108604EF624519F
:10154000CEF20001086840F480300860BFF34F8F8E
:10155000BFF36F8F01B070477047000000000000BC
:1015600080B582B00190019802F0B6F802B080BD5B
:1015700080B584B000200290FFE743F64000C4F23B
:101580000200016841F080510160006800F0805065
:1015900001900198FFE747F20001C4F200010868DA
:1015A00040F480300860FFF707FF0290FFE747F242
:1015B0000400C4F20000006800F48030B0F5803F01
:1015C0000DD0FFE7FFF7F8FE0299401AB0F57A7FD9
:1015D00004D9FFE703208DF80F0028E0E7E747F282
:1015E0000001C4F20001086840F400300860FFF711
:1015F000E3FE0290FFE747F20400C4F20000006837
:1016000000F40030B0F5003F0DD0FFE7FFF7D4FE47
:101610000299401AB0F57A7F04D9FFE703208DF8CC
:101620000F0004E0E7E700208DF80F00FFE79DF8CA
:101630000F0004B080BD000080B584B0029001911D
:1016400000200090029820B9FFE701208DF80F00DC
:1016500024E1019843F60041C4F20201096801F057
:101660000F01884216D9FFE743F60040C4F202009A
:10167000016821F00F01019A11430160006800F038
:101680000F000199884204D0FFE701208DF80F0078
:1016900004E1FFE702980078800700282AD5FFE7D9
:1016A000029800784007002809D5FFE743F60801B3
:1016B000C4F20201086840F4E0500860FFE70298B5
:1016C00000780007002809D5FFE743F60801C4F2B7
:1016D0000201086840F460400860FFE743F6080133
:1016E000C4F20201086820F0F000029A92681043E8
:1016F0000860FFE702980078C007002869D0FFE77C
:1017000002984068012811D1FFE743F60000C4F2B7
:101710000200006800F400310020B0EB514F04D10A
:10172000FFE701208DF80F00B8E027E0029840683D
:10173000022811D1FFE743F60000C4F2020000685E
:1017400000F000710020B0EB516F04D1FFE70120E1
:101750008DF80F00A2E010E043F60000C4F2020092
:10176000006800F002010020B0EB510F04D1FFE748
:1017700001208DF80F0091E0FFE7FFE743F6080135
:10178000C4F20201086820F00300029A5268104374
:101790000860FFF711FE0090FFE743F60800C4F26F
:1017A0000200006800F00C0002994968B0EB810F5C
:1017B0000ED0FFE7FFF700FE0099401A41F2893191
:1017C000884204D3FFE703208DF80F0066E0E4E7CA
:1017D000FFE7019843F60041C4F20201096801F0F5
:1017E0000F01884216D2FFE743F60040C4F2020020
:1017F000016821F00F01019A11430160006800F0B7
:101800000F000199884204D0FFE701208DF80F00F6
:1018100044E0FFE702980078400700280CD5FFE776
:1018200043F60801C4F20201086820F4E050029A6D
:10183000D26810430860FFE702980078000700288C
:101840000DD5FFE743F60801C4F20201086820F451
:101850006040029A126940EAC2000860FFE700F0A7
:1018600023F843F60801C4F202010968C9B20A0963
:1018700046F27871C0F60001895CC84040F2000170
:10188000C2F20001086040F2A800C2F20000006845
:10189000FFF7DEFD00208DF80F00FFE79DF80F0039
:1018A00004B080BD0000000080B586B00020059027
:1018B00004900390029043F60800C4F2020000680E
:1018C00000F00C000146019140B1FFE701980428A7
:1018D0000AD0FFE7019808280CD04FE042F2004000
:1018E000C0F2F40002904FE047F64000C0F27D10D5
:1018F000029049E043F60400C4F20200016801F0DE
:101900003F01059100684002002813D5FFE743F628
:101910000400C4F202000068C0F3881047F64001DA
:10192000C0F27D11A0FB0101059A0023FEF7E8FC3F
:10193000049012E043F60400C4F202000068C0F311
:10194000881042F20041C0F2F401A0FB0101059AA7
:101950000023FEF7D5FC0490FFE743F60400C4F231
:101960000200006800F44031022000EBD130039007
:1019700004980399B0FBF1F0029005E042F20040B8
:10198000C0F2F4000290FFE7029806B080BD0000AC
:1019900080B586B0049000208DF80700049820B927
:1019A000FFE701208DF817007AE304980078C0075C
:1019B000002800F0B780FFE743F60800C4F20200F9
:1019C000006800F00C00042813D0FFE743F608007D
:1019D000C4F20200006800F00C0008281ED1FFE7E6
:1019E00043F60400C4F2020000684002002815D546
:1019F000FFE743F60000C4F20200006800F4003183
:101A00000020B0EB514F08D0FFE70498406820B9A0
:101A1000FFE701208DF8170042E382E0FFE704981A
:101A20004068B0F5803F09D1FFE743F60001C4F2FA
:101A30000201086840F48030086032E00498406891
:101A400068B9FFE743F60001C4F20201086820F418
:101A500080300860086820F48020086020E0049846
:101A60004068B0F5A02F0DD1FFE743F60001C4F2A6
:101A70000201086840F480200860086840F4803063
:101A800008600CE043F60001C4F20201086820F48B
:101A900080300860086820F480200860FFE7FFE7D6
:101AA000FFE7FFE704984068E8B1FFE7FFF784FC31
:101AB0000390FFE743F60000C4F20200006800F460
:101AC00000310020B0EB514F0CD1FFE7FFF774FC61
:101AD0000399401A652804D3FFE703208DF8170007
:101AE000DEE2E7E71CE0FFF767FC0390FFE743F661
:101AF0000000C4F20200006800F400310020B0EBE6
:101B0000514F0CD0FFE7FFF757FC0399401A6528A7
:101B100004D3FFE703208DF81700C1E2E7E7FFE7F2
:101B2000FFE7FFE7049800788007002840F19C80D9
:101B3000FFE743F60800C4F20200006810F00C0F43
:101B400013D0FFE743F60800C4F20200006800F07B
:101B50000C0008282CD1FFE743F60400C4F2020071
:101B600000684002002823D4FFE743F60000C4F2D7
:101B70000200006800F002010020B0EB510F09D014
:101B8000FFE70498C068012804D0FFE701208DF822
:101B9000170085E243F60001C4F20201086820F054
:101BA000F800049A126940EAC2000860FFE75AE0B0
:101BB0000498C06888B3FFE743F60001C4F202014D
:101BC000086840F001000860FFF7F6FB0390FFE7AC
:101BD00043F60000C4F20200006800F00201002099
:101BE000B0EB510F0CD1FFE7FFF7E6FB0399401A6A
:101BF000032804D3FFE703208DF8170050E2E7E73E
:101C000043F60001C4F20201086820F0F800049ACB
:101C1000126940EAC200086024E043F60001C4F201
:101C20000201086820F001000860FFF7C5FB03907F
:101C3000FFE743F60000C4F20200006800F0020172
:101C40000020B0EB510F0CD0FFE7FFF7B5FB039975
:101C5000401A032804D3FFE703208DF817001FE282
:101C6000E7E7FFE7FFE7FFE70498007800070028B1
:101C70004FD5FFE70498406928B3FFE743F67401A6
:101C8000C4F20201086840F001000860FFF794FB0D
:101C90000390FFE743F67400C4F20200006800F00E
:101CA00002010020B0EB510F0CD1FFE7FFF784FBDE
:101CB0000399401A032804D3FFE703208DF8170087
:101CC000EEE1E7E724E043F67401C4F2020108689C
:101CD00020F001000860FFF76FFB0390FFE743F679
:101CE0007400C4F20200006800F002010020B0EBB2
:101CF000510F0CD0FFE7FFF75FFB0399401A032851
:101D000004D3FFE703208DF81700C9E1E7E7FFE7F9
:101D1000FFE7049800784007002840F1DB80FFE7E8
:101D200043F64000C4F202000068C000002813D44B
:101D3000FFE7FFE743F64000C4F20200016841F00C
:101D400080510160006800F0805000900098FFE72B
:101D500001208DF80700FFE747F20000C4F2000001
:101D60000068C005002822D4FFE747F20001C4F252
:101D70000001086840F480700860FFF71DFB0390C5
:101D8000FFE747F20000C4F200000068C005002829
:101D90000CD4FFE7FFF710FB0399401A652804D322
:101DA000FFE703208DF817007AE1EAE7FFE7FFE796
:101DB00004988068012809D1FFE743F67001C4F256
:101DC0000201086840F00100086031E00498806872
:101DD00068B9FFE743F67001C4F20201086820F019
:101DE00001000860086820F0040008601FE0049803
:101DF000806805280DD1FFE743F67001C4F20201A7
:101E0000086840F004000860086840F001000860BD
:101E10000CE043F67001C4F20201086820F00100F2
:101E20000860086820F004000860FFE7FFE7FFE7AC
:101E3000FFE704988068F8B1FFE7FFF7BDFA039069
:101E4000FFE743F67000C4F20200006800F00201F0
:101E50000020B0EB510F0ED1FFE7FFF7ADFA039969
:101E6000401A41F28931884204D3FFE703208DF8FC
:101E7000170015E1E5E71EE0FFF79EFA0390FFE784
:101E800043F67000C4F20200006800F00201002076
:101E9000B0EB510F0ED0FFE7FFF78EFA0399401A0F
:101EA00041F28931884204D3FFE703208DF81700FF
:101EB000F6E0E5E7FFE79DF80700012809D1FFE715
:101EC00043F64001C4F20201086820F08050086027
:101ED000FFE7FFE704988069002800F0DD80FFE756
:101EE00043F60800C4F20200006800F00C00082865
:101EF00000F09080FFE704988069022864D1FFE732
:101F000043F60001C4F20201086820F08070086006
:101F1000FFF752FA0390FFE743F60000C4F2020015
:101F2000006800F000710020B0EB516F0CD0FFE7AB
:101F3000FFF742FA0399401A032804D3FFE703206E
:101F40008DF81700ACE0E7E70499C869D1F820C024
:101F50004B6A8A6A40EA0C0040EA8310D2034FF6CB
:101F6000FF739A43A2F580321043C96A40EA0160C8
:101F700040F0005043F60401C4F20201086043F649
:101F80000001C4F20201086840F080700860FFF7A9
:101F900013FA0390FFE743F60000C4F20200006862
:101FA00000F000710020B0EB516F0CD1FFE7FFF79C
:101FB00003FA0399401A032804D3FFE703208DF89E
:101FC00017006DE0E7E724E043F60001C4F20201E8
:101FD000086820F080700860FFF7EEF90390FFE7D3
:101FE00043F60000C4F20200006800F00071002017
:101FF000B0EB516F0CD0FFE7FFF7DEF90399401A01
:10200000032804D3FFE703208DF8170048E0E7E733
:10201000FFE740E043F60400C4F2020000680290CB
:1020200004988069012831D0FFE7029800F480000D
:102030000499C969884229D1FFE7029800F03F005E
:102040000499096A884221D1FFE7029847F6C071D6
:1020500008400499496AB0EB811F17D1FFE7029845
:1020600000F440300499896AC9034FF6FF72914326
:10207000A1F58031884209D1FFE7029800F0706035
:102080000499C96AB0EB016F04D0FFE701208DF815
:10209000170005E0FFE7FFE700208DF81700FFE7D6
:1020A0009DF8170006B080BD80B586B004900391FE
:1020B000029200208DF80700FFE7049890F83C009A
:1020C000012804D1FFE702208DF81700C0E0049931
:1020D000012081F83C00FFE7FFE7029800901428F8
:1020E00000F2A7800099DFE801F00BA4A4A424A4C7
:1020F000A4A43EA4A4A457A4A4A471A4A4A48A0044
:1021000004980068039900F08FFF049801688869BB
:1021100040F00800886104980168886920F0040094
:10212000886103980269049801688869104388618E
:1021300083E004980068039900F0EEFF04980168BA
:10214000886940F40060886104980168886920F417
:10215000806088610398026904980168886940EA90
:102160000220886169E004980068039901F054F83E
:1021700004980168C86940F00800C86104980168C3
:10218000C86920F00400C8610398026904980168D6
:10219000C8691043C86150E004980068039901F0D1
:1021A000B7F804980168C86940F40060C8610498F1
:1021B0000168C86920F48060C861039802690498C6
:1021C0000168C86940EA0220C86136E004980068E6
:1021D000039901F0F5F804980168486D40F0080093
:1021E000486504980168486D20F00400486503982C
:1021F000026904980168486D104348651DE0049821
:102200000068039901F02CF904980168486D40F4C6
:102210000060486504980168486D20F48060486556
:102220000398026904980168486D40EA02204865F5
:1022300003E001208DF80700FFE7FFE70499002085
:1022400081F83C00FFE79DF807008DF81700FFE7D5
:102250009DF8170006B080BD80B582B00090009850
:1022600020B9FFE701208DF8070045E0009890F8BD
:102270003D0040B9FFE70099002081F83C0000983C
:1022800000F03EF8FFE70099022081F83D00009938
:1022900051F8040B00F0DCFD0099012081F84800A2
:1022A000FFE70099012081F83E00009981F83F0086
:1022B000009981F84000009981F84100009981F867
:1022C0004200009981F84300FFE7FFE700990120F1
:1022D00081F84400009981F84500009981F8460092
:1022E000009981F84700FFE70099012081F83D003F
:1022F00000208DF80700FFE79DF8070002B080BDC1
:1023000081B0009001B0704780B590B00E900D91F3
:102310000D9828B9FFE70E9890F83E000B9034E036
:102320000D98042805D1FFE70E9890F83F000A9019
:1023300028E00D98082805D1FFE70E9890F8400096
:1023400009901CE00D980C2805D1FFE70E9890F835
:102350004100089010E00D98102805D1FFE70E9875
:1023600090F84200079004E00E9890F84300079020
:10237000FFE707980890FFE708980990FFE709989A
:102380000A90FFE70A980B90FFE70B98012804D00A
:10239000FFE701208DF83F00D0E00D9828B9FFE756
:1023A0000E99022081F83E0038E00D98042806D1ED
:1023B000FFE70E99022081F83F0006902CE00D986F
:1023C000082806D1FFE70E99022081F84000059009
:1023D0001FE00D980C2806D1FFE70E99022081F826
:1023E0004100049012E00D98102806D1FFE70E99E5
:1023F000022081F84200039005E00E99022081F846
:1024000043000390FFE703980490FFE704980590CA
:10241000FFE705980690FFE70698FFE70E9800682B
:102420000D990122019200F0E3FD01980E990968CF
:102430000022C4F20102914202900CD0FFE70E98F4
:1024400000684FF60041CBF6FE710844B0FA80F008
:1024500040090290FFE70298C00738B1FFE70E98E5
:102460000168486C40F400404864FFE70E9800683B
:102470000021C4F2010188423CD0FFE70E980068B9
:10248000B0F1804F36D0FFE70E98006840F200416F
:10249000C4F2000188422DD0FFE70E98006840F694
:1024A0000001C4F20001884224D0FFE70E980068C2
:1024B00040F60041C4F2000188421BD0FFE70E98AD
:1024C000006840F20041C4F20101884212D0FFE7E7
:1024D0000E98006844F20001C4F20101884209D05C
:1024E000FFE70E98006841F60001C4F2000188423F
:1024F00019D1FFE70E98006880680721C0F201013A
:1025000008400C900C9806280CD0FFE70C98B0F50A
:10251000803F07D0FFE70E980168086840F001008F
:102520000860FFE706E00E980168086840F00100C7
:102530000860FFE700208DF83F00FFE79DF83F00AF
:1025400010B080BD0000000080B54FF68040C2F2A0
:1025500000000C3001F00CFA80BD0000000000000B
:1025600080B54FF68040C2F20000083001F000FA5A
:1025700080BD00000000000081B0EFF305800090F6
:102580000098002818BF012001B07047000000002B
:1025900081B0EFF3058000900098002818BF01205B
:1025A00001B070470000000081B0EFF3058000909B
:1025B0000098002818BF012001B0704700000000FB
:1025C00081B0EFF3058000900098002818BF01202B
:1025D00001B070470000000083B0EFF3108001905D
:1025E00001990120009049B9FFE7EFF311800290B3
:1025F0000298002818BF01200090FFE7009800F023
:10260000010003B07047000083B0EFF31080019029
:1026100001990120009049B9FFE7EFF31180029082
:102620000298002818BF01200090FFE7009800F0F2
:10263000010003B07047000083B0EFF310800190F9
:1026400001990120009049B9FFE7EFF31180029052
:102650000298002818BF01200090FFE7009800F0C2
:10266000010003B07047000083B0EFF310800190C9
:1026700001990120009049B9FFE7EFF31180029022
:102680000298002818BF01200090FFE7009800F092
:10269000010003B07047000082B00090009820B99C
:1026A000FFE700208DF8070003E001208DF8070008
:1026B000FFE79DF8070002B070470000000000002F
:1026C00081B0EFF3148000909DF800100120884342
:1026D00001B070470000000082B00090009820B95F
:1026E000FFE700208DF8070003E001208DF80700C8
:1026F000FFE79DF8070002B07047000000000000EF
:1027000080B588B0FFE743F63000C4F202000168EC
:1027100041F480710160006800F4807002900298BA
:10272000FFE7022003900121049105900020019011
:10273000069042F20000C4F2020003A9FEF714FC66
:10274000019808B080BD000080B582B001900020E3
:102750000090019870B9FFE7019A46F2A070C0F6A8
:10276000000000EBC20150F8320089880022FEF719
:102770000BFE03E04FF0FF300090FFE7009802B03F
:1027800080BD00000000000080B582B001900020F4
:102790000090019870B9FFE7019A46F2A070C0F668
:1027A000000000EBC20150F8320089880122FEF7D8
:1027B000EBFD03E04FF0FF300090FFE7009802B020
:1027C00080BD00000000000089B0079006910798C6
:1027D00000680590FFE79DF817004007002803D523
:1027E000FFE70020089032E00698059901F00041CB
:1027F000084340F080600490FFE7079B0498039033
:102800000599DDF80CC053E8000F084503D143E8F3
:1028100000C2002AF7D10090401AB0FA80F04009B7
:10282000BFF35F8F0146019118B9FFE7009805904B
:10283000FFE7019800F001008DF80B009DF80B00F8
:10284000C0070028C7D0FFE704980890FFE7089862
:1028500009B070470000000080B584B0FEF750FE5C
:1028600001208DF800004FF00051019112218DF8E8
:10287000081003218DF80B108DF80F008DF80E0055
:1028800000218DF80D108DF801108DF80A008DF8DB
:1028900009108DF80C006846FEF7E2FD0420FEF7F3
:1028A00043FE04B080BD000080B586B0FFE743F66C
:1028B0003000C4F20200016841F0010101600068CB
:1028C00000F0010005900598FFE7002004900390B8
:1028D0000290019000904FF400410091022101917B
:1028E00002900390012004900020C4F20200694687
:1028F000FEF73AFB06B080BD80B58AB00020099093
:10290000089007900690059004900390FFE743F627
:102910004000C4F20200016841F00101016000685A
:1029200000F0010002900298FFE740F2B400C2F20A
:10293000000001904FF08041016040F66F0141605E
:10294000002181606322C260016141618161FFF702
:1029500083FC18B1FFE7FDF70FFEFFE7702003903F
:10296000002204920592069207920892099240F280
:10297000B400C2F2000003A9FFF796FB18B1FFE70D
:10298000FDF7FAFDFFE70AB080BD0000000000007F
:1029900084B0039002910398029908440190019831
:1029A0000090009804B0704781B00090009801B08A
:1029B000704700000000000080B584B003900398C9
:1029C000283000F069FF01900198C0B1FFE703983B
:1029D000C06A0290FFE7029880B1FFE702980230D8
:1029E000012101F059F88DF803009DF8030008B9A2
:1029F000FFE703E0029880680290ECE702E0002025
:102A00000290FFE7029804B080BD000000000000C3
:102A100080B586B0059004910598006BE0B3FFE7A0
:102A20000598006B039000200290FFE703990020B7
:102A3000019051B1FFE70398C1780498C278002053
:102A40009142B8BF01200190FFE70198C00730B163
:102A5000FFE703980290039840680390E6E7039825
:102A600004994860029804998860039820B1FFE7B0
:102A700004980399886003E004980599C862FFE709
:102A8000029820B1FFE704980299486003E0049897
:102A900005990863FFE70BE004990020486004995A
:102AA000886004980599C862049805990863FFE74F
:102AB0000598283000F04CFF06B080BD00000000F3
:102AC00082B0019000910098406828B1FFE700981B
:102AD00041688068886004E0009880680199C86255
:102AE000FFE70098806828B1FFE700994868896887
:102AF000486004E00098406801990863FFE702B06D
:102B000070470000000000004EF21000CEF20000FE
:102B1000006870470000000048F24010C2F2000058
:102B2000007870B1FFE748F24011C2F200010020C6
:102B300008704EF60451CEF200014FF0806008603C
:102B4000FFE74EF21001CEF20001086840F00100EC
:102B500008607047000000004FF0FF307047000031
:102B600084B002900191029820B9FFE74FF0FF3046
:102B7000039031E040F20000C2F2000000680299C8
:102B8000B0FBF1F0013800900098B0F1807F04D3E1
:102B9000FFE74FF0FF3003901EE04EF62351CEF2D8
:102BA0000001FF2008704EF21001CEF20001062055
:102BB000086000984EF21401CEF2000108604EF257
:102BC0001801CEF200010020086048F24011C2F264
:102BD000000108700390FFE7039804B070470000FD
:102BE00080B584B04EF62250CEF20000FF21017075
:102BF000007880F0FF0003900398B0FA80F0C0F1F5
:102C00002000019000F060FD029002980199884236
:102C100004D3FFE7029801300190FFE70199FE20FD
:102C200088404EF61F51CEF20001087004B080BDFE
:102C30004EF60451CEF200014FF08050086070470C
:102C400083B08DF803009DF80300C00740B1FFE793
:102C500002200290029880F31488BFF36F8F07E080
:102C600003200190019880F31488BFF36F8FFFE772
:102C700003B070470000000081B08DF803009DF89C
:102C80000300C1062020002958BF602001B0704712
:102C900080B592B0012001904FF480300290002066
:102CA0000490022007904FF48001089119210991A6
:102CB0004FF4D8710A910B9009200C9001A8FEF7EF
:102CC00067FE18B1FFE7FDF753FCFFE7FEF750FC86
:102CD00018B1FFE7FDF74CFCFFE70F200D90022035
:102CE0000E9000200F904FF4A05010904FF48050A1
:102CF00011900DA80721FEF79FFC18B1FFE7FDF723
:102D000037FCFFE712B080BD86B000210591049129
:102D1000022003900291019043F60800C4F20200E1
:102D2000006800F00C0005900598009040B1FFE7A6
:102D3000009804280ED0FFE70098082814D059E026
:102D400040F20001C2F2000142F20040C0F2F40081
:102D5000086059E040F20001C2F2000147F640006D
:102D6000C0F27D1008604FE043F60400C4F2020098
:102D70000168C1F380510291006800F03F000190AA
:102D8000029888B1FFE7019947F64000C0F27D1034
:102D9000B0FBF1F043F60401C4F202010968C1F38B
:102DA00088114843049010E0019942F20040C0F2BB
:102DB000F400B0FBF1F043F60401C4F2020109682B
:102DC000C1F3881148430490FFE743F60400C4F2BE
:102DD0000200006800F44031022000EBD130039083
:102DE00004980399B0FBF1F040F20001C2F2000137
:102DF000086009E040F20001C2F2000142F2004026
:102E0000C0F2F4000860FFE743F60800C4F20200D5
:102E10000068C0B2010946F27870C0F60000405C5C
:102E20000590059A40F20001C2F200010868D04006
:102E3000086006B0704700004EF68851CEF20001DF
:102E4000086840F47000086070470000000000004F
:102E500083B00290019102980068009002980021CE
:102E6000C4F20101884225D0FFE70298B0F1804FFB
:102E700020D0FFE7029840F20041C4F200018842EE
:102E800018D0FFE7029840F60001C4F20001884222
:102E900010D0FFE7029840F60041C4F200018842DA
:102EA00008D0FFE7029840F20041C4F201018842D5
:102EB0000AD1FFE7009820F0700000900198416867
:102EC000009808430090FFE702980021C4F2010136
:102ED000884255D0FFE70298B0F1804F50D0FFE70D
:102EE000029840F20041C4F20001884248D0FFE756
:102EF000029840F60001C4F20001884240D0FFE78A
:102F0000029840F60041C4F20001884238D0FFE741
:102F1000029840F20041C4F20101884230D0FFE73C
:102F2000029844F20001C4F20101884228D0FFE770
:102F3000029844F20041C4F20101884220D0FFE728
:102F4000029844F60001C4F20101884218D0FFE75C
:102F5000029841F60001C4F20001884210D0FFE758
:102F6000029841F60041C4F20001884208D0FFE710
:102F7000029842F20001C4F2000188420AD1FFE740
:102F8000009820F4407000900198C16800980843B0
:102F90000090FFE7009820F08000019949690843FC
:102FA0000090009802990860019880680299C862B0
:102FB000019800680299886202980021C4F2010118
:102FC000884208D0FFE7029840F20041C4F20101B4
:102FD000884205D1FFE70198006902990863FFE77D
:102FE00002990120486103B0704700000000000012
:102FF00084B0039002910192029800F01F01012019
:1030000088400090009A0399086A904308620198EA
:10301000029901F01F0100FA01F20399086A1043B6
:10302000086204B07047000085B0049003910499D1
:10303000086A20F0010008620498006A0190049870
:103040004068009004988069029002984FF68F7152
:10305000CFF6FE7108400290029820F00300029023
:1030600003980168029808430290019820F002003A
:103070000190039881680198084301900498002109
:10308000C4F20101884208D0FFE7049840F20041F1
:10309000C4F2010188420ED1FFE7019820F0080038
:1030A00001900398C168019808430190019820F0AD
:1030B00004000190FFE704980021C4F20101884256
:1030C00008D0FFE7049840F20041C4F201018842B1
:1030D00013D1FFE7009820F480700090009820F44E
:1030E000007000900398416900980843009003988D
:1030F0008169009808430090FFE7009804994860B0
:10310000029804998861039840680499486301987B
:103110000499086205B0704785B004900391049942
:10312000086A20F0100008620498006A0190049870
:1031300040680090049880690290029848F6FF71F8
:10314000CFF6FF6108400290029820F44070029090
:1031500003980168029840EA01200290019820F04B
:103160002000019003988168019840EA01100190C5
:1031700004980021C4F20101884208D0FFE70498B6
:1031800040F20041C4F2010188420FD1FFE70198EB
:1031900020F0800001900398C168019840EA011076
:1031A0000190019820F040000190FFE70498002171
:1031B000C4F20101884208D0FFE7049840F20041C0
:1031C000C4F20101884215D1FFE7009820F4806025
:1031D0000090009820F400600090039841690098E6
:1031E00040EA8100009003988169009840EA8100DC
:1031F0000090FFE70098049948600298049988615C
:10320000039840680499886301980499086205B09E
:10321000704700000000000085B0049003910499FD
:10322000086A20F4807008620498006A019004988B
:10323000406800900498C069029002984FF68F7120
:10324000CFF6FE7108400290029820F00300029031
:1032500003980168029808430290019820F40070D6
:10326000019003988168019840EA01200190049838
:103270000021C4F20101884208D0FFE7049840F21F
:103280000041C4F2010188420FD1FFE7019820F408
:10329000006001900398C168019840EA0120019004
:1032A000019820F480600190FFE704980021C4F2A7
:1032B0000101884208D0FFE7049840F20041C4F2BF
:1032C0000101884215D1FFE7009820F4805000905A
:1032D000009820F40050009003984169009840EA5B
:1032E0000110009003988169009840EA0110009055
:1032F000FFE700980499486002980499C861039810
:1033000040680499C86301980499086205B0704741
:1033100085B0049003910499086A20F480500862F3
:103320000498006A01900498406800900498C0696D
:103330000290029848F6FF71CFF6FF6108400290B4
:10334000029820F44070029003980168029840EAC5
:1033500001200290019820F40050019003988168A8
:10336000019840EA0130019004980021C4F2010163
:10337000884208D0FFE7049840F20041C4F20101FE
:1033800088420BD1FFE7009820F48040009003981A
:103390004169009840EA81100090FFE70098049985
:1033A000486002980499C8610398406804990864C9
:1033B00001980499086205B0704700000000000001
:1033C00085B0049003910499086A20F48030086263
:1033D0000498006A01900498406800900498406D39
:1033E000029002984FF68F71CFF6FE71084002905E
:1033F00003980168029808430290019820F4003075
:10340000019003988168019840EA01400190049876
:103410000021C4F20101884208D0FFE7049840F27D
:103420000041C4F2010188420BD1FFE7009820F46B
:103430008030009003984169009840EA0120009094
:10344000FFE700980499486002980499486503983A
:1034500040680499886501980499086205B070472E
:1034600085B0049003910499086A20F480100862E2
:103470000498006A01900498406800900498406D98
:103480000290029848F6FF71CFF6FF610840029063
:1034900003980168029840EA01200290019820F404
:1034A0000010019003988168019840EA0150019052
:1034B00004980021C4F20101884208D0FFE7049873
:1034C00040F20041C4F2010188420BD1FFE70098AD
:1034D00020F48020009003984169009840EA812000
:1034E0000090FFE7009804994860029804994865A5
:1034F000039840680499C86501980499086205B06A
:10350000704700000000000080B584B00390029175
:1035100001929DF804008007002814D4FFE79DF86D
:103520000400C00738B1FFE703982830029900F083
:1035300023F9009006E003982830029900F038F94A
:103540000090FFE71BE00398806A00909DF804005C
:10355000C00730B1FFE700980299084088420AD1BD
:10356000FFE79DF80400C00740B9FFE70098029903
:10357000084203D1FFE700200090FFE7FFE7009833
:1035800004B080BD0000000080B584B003900291BB
:1035900003982830029900F06BFA0190019804B06A
:1035A00080BD00000000000085B004900391002061
:1035B000029040F20400C2F20000406C0190FFE76C
:1035C00001990020009049B1FFE701980169039A31
:1035D0000020914298BF01200090FFE70098C007AB
:1035E00058B1FFE7019801690398401A03900198C8
:1035F00002900198C0680190E2E70398049908617D
:1036000002980499886001980499C860019850B1A3
:10361000FFE70498026901990869801A0861049813
:1036200001998860FFE7029820B1FFE704980299AA
:10363000C86006E0049840F20401C2F20001486448
:10364000FFE705B07047000081B000900098C068A7
:1036500028B1FFE700998868C9688860FFE700988B
:10366000C06840F20401C2F20001486401B0704732
:1036700089B008900791079820F08060069008981C
:1036800001900699059105990291BFF35F8F00683B
:103690000390FFE70399019BDDF808C053E8000F92
:1036A000084503D143E800C2002AF7D10090411A2F
:1036B000B1FA81F1490901290390EBD1FFE70098A4
:1036C000049009B0704700004EF60C50CEF2000096
:1036D0000068C0F30220704783B00290029800F0A7
:1036E000070000904EF60C51CEF2000108680190E0
:1036F00001984FF6FF02104001900198009A40EAAD
:1037000002200022C0F2FA52104301900198086092
:1037100003B070470000000080B582B00190FEF752
:10372000EFFFFCF791FE46F27160C0F60000002248
:10373000114601F051FF014648F27060C2F20000EC
:103740000160006808B9FFE7FFE746F2B150C0F634
:1037500000000022114601F03FFF014648F26C6074
:10376000C2F200000160006808B9FFE7FFE701F05E
:10377000EFFE00000000000010B585B0049003913A
:10378000049B039C53E8002F02EA0401A14203D0EA
:10379000BFF32F8F002205E022EA040143E8001066
:1037A00000B1EFE7009202910190009805B010BDC2
:1037B00010B585B004900391049B039C53E8002F3F
:1037C000224203D1BFF32F8F002205E022EA040139
:1037D00043E8001000B1F1E70092029101900098D7
:1037E00005B010BD0000000088B00790069105925A
:1037F000079B06980090059904910168DDF810C0B8
:10380000BFF35F8F53E8000F084503D143E800C2C0
:10381000002AF7D10190401AB0FA80F04009BFF3B6
:103820005F8F0146029120B9FFE701980099086077
:10383000FFE7029800F001008DF80F009DF80F00DF
:1038400000F0010008B0704784B00390039BD3E8F8
:103850005F2F12B9BFF32F8F04E0511EC3E8501F32
:1038600000B1F4E7ADF8022002910190BDF802002A
:1038700004B070470000000084B00390039B53E83D
:10388000002F511E43E8001000B1F8E700920291AA
:103890000190009804B0704784B00390039B53E8F4
:1038A000002F12B9BFF32F8F04E0511E43E8001020
:1038B00000B1F4E7009202910190009804B07047C3
:1038C00010B585B00490ADF80E10049BBDF80E4005
:1038D000D3E85F2F511C8C4200D80021C3E8501F51
:1038E00000B1F5E7ADF8022002910190BDF80200A9
:1038F00005B010BD0000000010B585B00490ADF813
:103900000E10049BBDF80E40D3E85F2F944202D8FE
:10391000BFF32F8F04E0511CC3E8501F00B1F3E741
:10392000ADF8022002910190BDF8020005B010BD73
:1039300084B00390039B53E8002F511C43E8001010
:1039400000B1F8E7009202910190009804B070472E
:1039500084B00390039B53E8002F511C43E80010F0
:1039600000B1F8E7009202910190009804B070470E
:1039700087B0069006980190012105910599029162
:1039800000680390FFE70399019B029801EB000C8C
:1039900053E8000F084503D143E800C2002AF7D1DD
:1039A0000090411AB1FA81F1490901290390EAD145
:1039B000FFE700980490049807B0704700000000EB
:1039C00086B005900598019001218DF813109DF89F
:1039D0001310029100780390FFE70399019B02986E
:1039E00001EB000CC9B2D3E84F0F084503D1C3E87F
:1039F00042CF002AF7D10090C9B2411AB1FA81F141
:103A0000490901290390E8D1FFE700988DF81200D9
:103A10009DF8120006B0704784B00390039B53E8F2
:103A2000002F12B9BFF32F8F04E0116843E8001094
:103A300000B1F4E7009202910190009804B0704741
:103A400010B585B004900391049B039C1A68226012
:103A5000BFF35F8F53E8002F21689142F6D143E80E
:103A6000004000B1F2E702920191009005B010BD54
:103A700010B585B004900391049B039C53E8001F8C
:103A800041EA040243E8002000B1F7E70092029106
:103A90000190009805B010BD84B003908DF80B1014
:103AA000039A9DF80B30D2E84F1FC2E8403F00B1A7
:103AB000F9E78DF8031001909DF8030004B07047FA
:103AC00080B58AB00890079106920593089800F097
:103AD00013FD04900498FEF7DFFD58B1FFE704984A
:103AE0000078FA2806D1FFE7079818B1FFE7059894
:103AF00048B1FFE704986FF003010191FCF7FCFF68
:103B0000019809902FE00498FEF756FF0390039860
:103B1000F0B1FFE7079803990C31049A526AFCF759
:103B200020FC069828B1FFE70398C0780699087032
:103B3000FFE704980399C860039800F055FE00F071
:103B4000CFFE04980799FDF79BF80020029007E04C
:103B500004980799FDF748F86FF002000290FFE71C
:103B600002980990FFE709980AB080BD00000000A4
:103B700080B58AB0089007918DF81B2005930898AE
:103B800000F0BAFC04900498FEF786FD58B1FFE7F8
:103B900004980078FA2806D1FFE7079818B1FFE7E4
:103BA000059848B1FFE704986FF003010191FCF715
:103BB000A3FF0198099036E004980C3000F0E4FB74
:103BC0000390039820B3FFE703980C300799049AF9
:103BD000526AFCF7C6FB0399F9200870039900208C
:103BE000009088709DF81B000399C870079803998E
:103BF0004860049803998860039800F0F5FD00F090
:103C00006FFE04980799FCF7BFFF0098029007E049
:103C100004980799FCF7D8FF6FF002000290FFE7C5
:103C200002980990FFE709980AB080BD00000000E3
:103C300080B588B006900591069801F025F90490AA
:103C40000498FEF749FD58B1FFE704980078F12881
:103C500006D1FFE79DF817000006002809D5FFE709
:103C600004986FF003010291FDF7AEF802980790F7
:103C70001EE004984078042809D1FFE704986FF00B
:103C800002010191FDF7A0F80198079010E0049857
:103C90000599FFF779FC0390049800F0BDFD00F052
:103CA0001FFE04980399FDF7ABF803980790FFE710
:103CB000079808B080BD000080B584B040F20400D1
:103CC000C2F20000B0F85410ADF80A105630FFF7F9
:103CD000BBFDA8B1FFE7BDF80A1040F20400C2F234
:103CE000000000905A30FFF7EBFD01460098039169
:103CF000C06D039950F8210000F086FD019002E0AC
:103D000000200190FFE7019804B080BD0000000092
:103D100080B586B0059040F20400C2F20000B0F811
:103D20005410ADF80E10BDF80E105630FFF7E4FD3C
:103D3000BDF80E10884214DAFFE7BDF80E1040F20D
:103D40000400C2F2000001905830FFF7B9FD01995C
:103D500004900598C96D049A41F822000120029050
:103D600002E000200290FFE7029806B080BD00004C
:103D700080B582B0002000900190FEF76DFDFCF749
:103D800087FBFDF74DFBFEF783FFFEF7BDFF00F05D
:103D90007FF8009A43F21970C0F60000114601F056
:103DA0001BFC00F09DF8FFE7FEE7000000000000AC
:103DB00080B586B002900298FCF74EFDFEF7DCFB62
:103DC00020B9FFE7FEF708FC40B1FFE76FF0050000
:103DD0000090FCF761FD0098019010E002980590BA
:103DE0000598049045F25160C0F600000390DDF89C
:103DF0000CC0049800DF049004980190FFE701983C
:103E000006B080BD0000000080B584B0FEF7C0FBA6
:103E100040B9FFE7FEF7F8FB20B9FFE7FEF750FCDB
:103E200020B1FFE701F03CFC01900BE045F2A160FE
:103E3000C0F600000290DDF808C000DF0390039890
:103E40000190FFE7019804B080BD00000000000071
:103E500080B584B0FEF79CFB20B9FFE7FEF7D4FBEA
:103E600020B1FFE701F028FC01900BE045F2B960BA
:103E7000C0F600000290DDF808C000DF0390039850
:103E80000190FFE7019804B080BD00000000000031
:103E900080B584B000F0F4F8FCF762FDFEF778FB23
:103EA00020B9FFE7FEF7B0FB40B1FFE76FF0050078
:103EB0000090FCF71DFD009801900BE045F2D960E1
:103EC000C0F600000290DDF808C000DF0390039800
:103ED0000190FFE7019804B080BD000000000000E1
:103EE00080B584B0FCF754FDFEF752FB20B9FFE724
:103EF000FEF78AFB40B1FFE76FF005000090FCF78A
:103F0000F7FC009801900BE045F6E110C0F60000C8
:103F10000290DDF808C000DF039003980190FFE7EE
:103F2000019804B080BD000080B58EB0049003916C
:103F30000292019304980399029A019BFCF7E8FD11
:103F4000FEF732FB20B9FFE7FEF776FB40B1FFE753
:103F500004980399029A019BFFF7B2FD00901FE0BD
:103F6000049B039A029901980D930C920B910A906D
:103F70000D9809900C9808900B9807900A98069055
:103F800045F68920C0F600000590DDF814C00998B8
:103F90000899079A069B00DF099009980090FFE7AF
:103FA00000980EB080BD000080B58EB004900391E3
:103FB0008DF80B200193049803999DF80B20019B29
:103FC000FCF722FEFEF7F0FA20B9FFE7FEF734FB1C
:103FD00048B1FFE7049803999DF80B20019BFFF778
:103FE000C7FD009022E0049B039A9DF80B100198F6
:103FF0000D930C928DF82F100A900D9809900C9843
:1040000008909DF82F0007900A98069045F6816069
:10401000C0F600000590DDF814C009980899079AC9
:10402000069B00DF099009980090FFE700980EB00A
:1040300080BD00000000000083B002900191029852
:1040400001380146009105280BD80099DFE801F0FE
:1040500003040506070805E004E003E002E001E0D0
:1040600000E0FFE7FFE7FEE781B00090009801B0B5
:10407000704700000000000081B00090FFE7FEE7FD
:10408000704700000000000080B582B001900091F0
:1040900001980099FCF738FC01980099FFF7CCFFD4
:1040A00002B080BD0000000040F20400C2F2000037
:1040B000007A70470000000040F20400C2F20000E5
:1040C000007A70470000000040F20400C2F20000D5
:1040D000007A70470000000080B58EB00C900B9104
:1040E0000A920C9838B1FFE70B9820B1FFE70A98C5
:1040F000800850B1FFE70C980B990A9A00230493AB
:10410000FCF75EFC04980D9089E00B98083006904F
:104110000698073020F0070006900C980821FEF75B
:1041200037FC0890FFE708990868401A059008983E
:10413000406820F003010598401A059005980699FB
:10414000884201D3FFE711E00898006808900898BA
:10415000006850B9FFE70C980B990A9A0023039363
:10416000FCF72EFC03980D9059E0DCE706980090D0
:104170000C98FEF719FC009A014648681044486004
:104180000C980190FEF710FC014601980968083967
:10419000FEF7FEFB07900798406802900C98FEF728
:1041A00003FC014602984968884207D2FFE70C9851
:1041B000FEF7FAFB406807994860FFE708984068F7
:1041C00058B9FFE706980A99084308994860089883
:1041D0000821FEF7DDFB099018E00898416821F0FE
:1041E0000301FEF7D5FB079008980068079908605F
:1041F00006980A9908430799486007980899086043
:1042000007980821FEF7C4FB0990FFE70C980B996B
:104210000A9A099BFCF7D4FB09980D90FFE70D98CB
:104220000EB080BD0000000080B58CB00A900991EE
:104230000A9818B1FFE7099848B9FFE70A98099961
:1042400000220592FCF710FC05980B904AE00998B3
:1042500000210491FEF79CFB0146049808910899FF
:104260000839089106900A980821FEF791FB0790FB
:10427000FFE707980899884212D0FFE70798069051
:10428000079800680790079848B9FFE70A980999C6
:1042900000220392FCF7E8FB03980B9022E0E8E78A
:1042A0000798406820F0030002900A98FEF77CFB14
:1042B000029A01464868801A4860069820B9FFE7CC
:1042C00007990020486004E0079800680699086094
:1042D000FFE70A98099901220192FCF7C5FB0198B2
:1042E0000B90FFE70B980CB080BD000000000000B1
:1042F00080B588B006900591069870B1FFE79DF8EB
:104300001800400748B9FFE79DF81400400720B99E
:10431000FFE70598172809D8FFE7069805990022B6
:104320000292FCF7B5FB0298079029E00698FEF789
:104330003BFB0490059804990860049910200090B4
:10434000486006980821FEF723FB0390069805991C
:104350000839FEF71DFB0099039A10600398026864
:1043600000201060039A1268516003994860069813
:10437000059901220192FCF78BFB01980790FFE75A
:10438000079808B080BD000080B584B00290029804
:1043900040B9FFE7002100910846FCF729FB00988F
:1043A000039013E002981430FFF736FB0190019858
:1043B00028B1FFE702980430FFF7BAFAFFE7029846
:1043C0000199FCF715FB01980390FFE7039804B0EF
:1043D00080BD00000000000080B586B0049003910D
:1043E000049860B1FFE703980499C968884206D32E
:1043F000FFE703980499096988420AD3FFE7049804
:1044000003996FF003020292FCF702FB02980590F9
:1044100011E0049814300399FFF712FB049804305C
:10442000FFF72AFA0498039900220192FCF7F0FAA8
:1044300001980590FFE7059806B080BD00000000D8
:1044400080B588B00690059104920393069848B110
:10445000FFE7059830B1FFE7049818B1FFE703982C
:1044600018B9FFE70020079033E005980699086027
:104470000699002048600498069988600398069978
:10448000C860039806994861039A0598049900FB4F
:1044900001200699086106980599049A039BFCF788
:1044A000CBFA03980290FFE705980138059050B1C8
:1044B000FFE7029804990844019001980299086066
:1044C00001980290F0E7029900200860012007900F
:1044D000FFE7079808B080BD81B00090009801B058
:1044E000704700000000000081B00090009801B00B
:1044F000704700000000000081B00090009801B0FB
:10450000704700000000000080B588B00790079851
:10451000807800284AD0FFE70798C0680690069880
:104520000799FEF7CDFA07990020087006980C301D
:104530000799FFF751FF06988068B0B3FFE7069828
:104540000C30FFF721FF0590059868B3FFE7069848
:1045500000F04AF900F0C0FC049004980022009298
:10456000114600F09DFE049800F0AEFD0390039804
:104570004068029005980C300299069A526AFBF73F
:10458000F0FE0098059AF92111700599887003983A
:1045900080680599C87006980599FEF739FA06985B
:1045A0000299FCF701FBFFE7FFE74DE00798806801
:1045B000069007984068029006988068D0B3FFE79D
:1045C000069880684078832834D1FFE706980299DE
:1045D000FCF7EAFA069800F007F900F07DFC049079
:1045E00004980022114600F05BFE049800F06CFD78
:1045F0000390039840680190019807990C31069A3E
:10460000526AFBF7AEFE0398806830B1FFE7079867
:10461000C078039989680870FFE706980199FCF74C
:104620002FFB07990020087006980C300799FFF7B8
:10463000D3FE08E006980299FCF7B6FA06980799A7
:10464000FEF7E6F9FFE7FFE708B080BD00000000D5
:1046500080B582B04FF0FF30019046F2D060C0F6D6
:104660000000826EC06E082101F0C2FAFFF744FF1D
:10467000014640F20400C2F20000C164C06C18B1EF
:10468000FFE700200190FFE7019802B080BD000025
:1046900081B00090009801B0704700000000000059
:1046A00080B586B0059005980490FFE7049800282F
:1046B00040D0FFE70498406903900498C078000751
:1046C000002834D5FFE70498002101760498FCF710
:1046D00007FB0498806848B3FFE7049800F08CF863
:1046E00000F0FAFB0290029800220192114600F0BD
:1046F000D7FD01980299049AD16004990861029843
:10470000C06A049948610298C06A28B1FFE704981A
:104710000299C96A0861FFE704980299C86204987F
:10472000012101760498FCF7CBFAFFE7FFE7039835
:104730000490BBE706B080BD80B586B005900491BB
:104740000598C078800700284AD5FFE70598C0681B
:104750000290029890F821008DF803000298C06A38
:104760000390FFE70398C078800700281ED5FFE775
:1047700003988068019001980499884204D1FFE76A
:10478000019880680190FFE7019870B1FFE70198F8
:1047900090F920009DF90310884206DDFFE701989B
:1047A00090F820008DF80300FFE7FFE703984069C9
:1047B0000390FFE703980028D4D1FFE7029890F90F
:1047C00020009DF90310884209D0FFE79DF80300FF
:1047D000029981F82000029800F006FCFFE7FFE74D
:1047E00006B080BD0000000081B00090009801B0CC
:1047F000704700000000000081B00090009801B0F8
:10480000704700000000000081B00090009801B0E7
:10481000704700000000000081B00090009801B0D7
:10482000704700000000000080B588B0FFE7FFF788
:1048300043FA0790079808B9FFE74CE0079800781B
:10484000F13801460691082843D80699DFE801F0BF
:1048500005411141411D2941350040F20400C2F2D9
:104860000000006E0590079800F0EAFB0599884764
:1048700030E040F20400C2F20000406E049007985D
:10488000FFF7F2FB0499884724E040F20400C2F2EB
:104890000000806E0390079800F046F8039988475F
:1048A00018E040F20400C2F20000C06E02900798C7
:1048B000FFF712FE029988470CE040F20400C2F2B2
:1048C0000000006F01900798FFF70EFE01998847DE
:1048D00000E0FFE7ABE7002000F01EFA08B080BD63
:1048E00080B582B001900198FFF712FA90B1FFE70E
:1048F00040F20400C2F20000407A18B9FFE7FEF768
:1049000097F906E040F20401C2F20001012088722A
:10491000FFE704E001990220FFF7B6FBFFE702B0D2
:1049200080BD00000000000081B00090009801B040
:10493000704700000000000081B0009001B0704797
:1049400080B586B00590059901204870059890F9CA
:104950002000029040F20400C2F200001C3000F07F
:1049600077FB0490049880680390FFE70399002088
:10497000019051B1FFE7039890F92010029A0020AE
:104980009142C8BF01200190FFE70198C00730B1F4
:10499000FFE703980490039880680390E6E7049883
:1049A0000599C860039805998860059804998860FE
:1049B000039820B1FFE705980399C860FFE70598C1
:1049C000FCF77AFA06B080BD85B004900391039895
:1049D000013050BBFFE70020029040F20400C2F219
:1049E0000000006B0190FFE7019830B1FFE70198EC
:1049F0000290019800690190F6E703980499C86154
:104A0000029804994861049900200861029820B135
:104A1000FFE704980299086106E0049840F2040157
:104A2000C2F200010863FFE749E00020029040F273
:104A30000400C2F20000C06A0190FFE70199002063
:104A4000009049B1FFE70198C169039A00209142A3
:104A500098BF01200090FFE70098C00758B1FFE71A
:104A60000198C1690398401A039001980290019837
:104A700000690190E2E703980499C86102980499DB
:104A80004861019804990861029820B1FFE70498F1
:104A90000299086106E0049840F20401C2F20001A4
:104AA000C862FFE7019848B1FFE7039A0199C86916
:104AB000801AC861049801994861FFE7FFE705B0D3
:104AC000704700000000000081B000900098C069AD
:104AD0000130F0B9FFE70098006928B1FFE70098BE
:104AE000016940694861FFE70098406940B1FFE70C
:104AF000009908694969086100990020486107E048
:104B00000098006940F20401C2F200010863FFE767
:104B100023E00098006958B1FFE700980169C26975
:104B2000C8691044C8610098016940694861FFE79D
:104B30000098406940B1FFE7009908694969086138
:104B400000990020486107E00098006940F20401E4
:104B5000C2F20001C862FFE7FFE700990020C861C8
:104B600001B070470000000080B586B040F204003C
:104B7000C2F20000C06A0590059808B9FFE799E005
:104B80000599C8690138C8610598C069002840F0D6
:104B90009180FFE7FFE705984078014603911328CD
:104BA0001CD0FFE7039833281CD0FFE70398432865
:104BB0001CD0FFE7039853281ED0FFE70398632813
:104BC0002CD0FFE7039873282ED0FFE703988328A3
:104BD00030D0FFE70398932832D037E00598FBF7F1
:104BE0004BFE34E00598FCF733F930E0059800F00F
:104BF000E7F9FBF76DFE2AE0059800F0E1F9FFF711
:104C00000BFE04900498FFF743FD0599FFF794FD10
:104C10000498FFF73DFDFCF743F818E0059800F015
:104C2000CFF9FCF76DF812E0059800F0C9F9FBF731
:104C300043FF0CE0059800F0C3F9FBF795FF06E091
:104C4000059800F0BDF9FCF70BF800E0FFE70598C8
:104C5000029000F039FA014602980968FCF74CF915
:104C6000059800F091F9059800F01EFA0598006982
:104C70000590FFE705990020019039B1FFE70598FD
:104C8000C069B0FA80F040090190FFE70198C007C1
:104C900000287FF480AFFFE7059820B1FFE7059972
:104CA00000204861FFE7059840F20401C2F20001CC
:104CB000C862FFE706B080BD80B582B00190019860
:104CC000C078C00720B9FFE7019800F071F81EE036
:104CD00001990420487001990020C86040F2040046
:104CE000C2F20000416B019A9160406B40B1FFE756
:104CF000019840F20401C2F20001496BC860FFE76D
:104D0000019840F20401C2F200014863FFE70198F4
:104D1000FCF732F802B080BD80B584B00390FFF795
:104D2000CBF98DF80B0000F09FF80190039810BBB1
:104D3000FFE740F20400C2F20000406A00909DF8D4
:104D40000B00022816D1FFE7009898B1FFE7009802
:104D500090F92000019991F9201088420ADDFFE7BF
:104D6000009800F011F90198FFF7EAFD009800F0B3
:104D700043FAFFE719E09DF80B00022810D1FFE786
:104D8000039890F92000019991F92010884207DDDD
:104D9000FFE70198FFF7D4FD039800F02DFA03E038
:104DA000039800F081F9FFE7FFE704B080BD000041
:104DB00080B582B001900198FFF7BEFD01990020F7
:104DC00048700199087001988078800700281CD5E8
:104DD000FFE701988078C00600280BD5FFE740F276
:104DE0000400C2F20000D0F884000199096BFFF7BB
:104DF000F3FA09E040F20400C2F20000406F0199AA
:104E0000096BFFF711FAFFE7FFE701988078C00709
:104E1000E8B1FFE740F20400C2F20000D0F88800D9
:104E200050B1FFE740F20400C2F20000D0F8880061
:104E30000199FFF7D1FA09E040F20400C2F2000044
:104E4000D0F880000199FFF7EFF9FFE7FFE702B024
:104E500080BD00000000000040F20400C2F200002B
:104E6000406970470000000040F20400C2F20000F8
:104E7000406970470000000040F20400C2F20000E8
:104E8000406970470000000081B00090009801B0B8
:104E9000704700000000000080B582B001900198CA
:104EA000806958B1FFE7019880690022114600F03F
:104EB000F7F901988069FBF7DBFFFFE7019840787D
:104EC000232805D1FFE70198816800208861FFE76A
:104ED00002B080BD0000000080B582B00190019852
:104EE00080680090009880680199886000988068C8
:104EF00038B1FFE7019800F0ABF800998968C86005
:104F0000FFE700990020C860009802B080BD000053
:104F100080B586B005900491049890F92000019026
:104F2000059800F095F80390039880680290FFE7D9
:104F300002990020009051B1FFE7029890F92010EB
:104F4000019A00209142A8BF01200090FFE700983D
:104F5000C00730B1FFE70298039002988068029082
:104F6000E6E703980499C860029804998860049859
:104F700003998860029820B1FFE704980299C860FD
:104F8000FFE706B080BD000081B000900098C068C7
:104F900088B1FFE700998868C968886000988068D0
:104FA00028B1FFE700988168C068C860FFE70099F2
:104FB0000020C860FFE701B070470000000000005B
:104FC00082B0019001980090FFE700980078F128E6
:104FD00004D1FFE70098C0680090F6E7009802B09F
:104FE000704700000000000080B584B00390039873
:104FF0000190FFE701990020009041B1FFE701987F
:105000000078F138B0FA80F040090090FFE700988E
:10501000C00720B1FFE70198C0680190EAE7019856
:10502000FFF7FAFB0290029840B1FFE70398FFF701
:10503000ABFF02980399FFF76BFFFFE704B080BD59
:1050400081B00090009801B070470000000000009F
:1050500081B00090009801B070470000000000008F
:1050600080B582B0019001984078332818D1FFE7CD
:105070000198416A90F82320FEF746FA00900098C4
:1050800068B1FFE701980099002200F009F9019B3F
:10509000586A93F82310009AFBF7C2FEFFE7FFE778
:1050A00002B080BD0000000080B582B0019001997F
:1050B00001204870019940F20400C2F200001C3047
:1050C000FFF726FF02B080BD80B584B0039003983F
:1050D000816B019190F82200FDF7CEFD0146019809
:1050E00008440290029804B080BD00000000000057
:1050F00081B00090009840F20401C2F200014861C2
:1051000001B070470000000081B00090009840F2AC
:105110000401C2F20001486101B0704700000000C4
:1051200082B000900098016B806B88420AD9FFE73B
:105130000098006B006842F6A561CEF25A218842C1
:1051400004D0FFE700208DF8070003E001208DF870
:105150000700FFE79DF8070002B07047000000005D
:1051600080B584B000218DF80F1046F2D060C0F6F3
:1051700000000290826D44F27900C0F6000000F059
:10518000DFFFFFF781FE0146029840F20402C2F2FF
:1051900000029162406E20B3FFE746F2D060C0F695
:1051A0000000406E8047D8B9FFE746F2D060C0F6F5
:1051B0000000C26D006E40F20401C2F200010191D4
:1051C000C96C00F0BDFFFFF75FFE014601988164E6
:1051D000806C20B1FFE701208DF80F00FFE7FFE7AB
:1051E00003E001208DF80F00FFE79DF80F0000F0AD
:1051F000010004B080BD000080B582B0019001992B
:10520000022048700198C078C0F38000FDF718FDB7
:10521000019840F20401C2F2000188610198FBF795
:105220005BFE02B080BD000080B584B08DF80E003A
:105230000291FEF741FF022804D0FFE700208DF81D
:105240000F0028E040F20400C2F20000406A20B9DA
:10525000FFE700208DF80F001DE0FFF705FE01902D
:1052600001980299FBF75CFD9DF80E0001994870CA
:1052700001980299FFF7A8FB40F20400C2F2000077
:105280001C30FFF729FE01900198FFF7B5FF0120C0
:105290008DF80F00FFE79DF80F0004B080BD0000FF
:1052A00080B584B0039002918DF80720039802998D
:1052B000FBF722FE0398FFF707FF00900298009982
:1052C00008600398FFF700FC9DF80700C00720B1B5
:1052D000FFE70398FFF720FD03E00398FFF7E4FEE4
:1052E000FFE704B080BD000080B584B0FDF70CFC82
:1052F00040F20401C2F200010291C8680130C860A6
:10530000FFF732FC0020FFF707FD0298006D38B16F
:10531000FFE740F20400C2F20000006D8047FFE7A3
:1053200040F20400C2F20000006C002862D0FFE7E7
:1053300040F20401C2F20001886903900398C96B2E
:10534000884213D0FFE7039840F20401C2F2000143
:10535000C8630398C06940B9FFE740F20400C2F295
:105360000000006C0399C861FFE7FFE70398C0697C
:1053700028B1FFE70399C8690138C861FFE70398BE
:10538000C069B0BBFFE7FEF78FFE022830D1FFE710
:1053900040F20400C2F20000406A0390039830B368
:1053A000FFE7039890F9200040F20401C2F20001E7
:1053B000C96B91F92010884219D1FFE70398FFF7D4
:1053C000E3FD40F20400C2F200000190C06BFFF761
:1053D0006BFE0198C06BFBF76FFD0398FFF70CFFA6
:1053E00001980399C163006C0399C861FFE7FFE767
:1053F000FFE7FFE704B080BD80B582B04FF0FF301B
:105400000190FFF725F960B9FFE740F20401C2F20D
:10541000000145F26140C0F60000086500200190DF
:10542000FFE7019802B080BD86B005900598019015
:10543000FFE7019803A900224FF0FF33FEF774FD48
:105440000290029840B9FFE703980499FBF764FDC6
:10545000039904988847FFE7EBE70000000000008D
:1054600080B586B040F20400C2F20000406C0490A7
:10547000049808B9FFE75FE0FFF7FEFC0590049988
:10548000086901380861FFE704990020019039B1EB
:10549000FFE704980069B0FA80F040090190FFE747
:1054A0000198C007002843D0FFE70498FEF7CCF826
:1054B00040F20400C2F20000C06C049918310023CD
:1054C0001A46FEF771FD03900398E0B1FFE7FFF77E
:1054D000D3FC029040F20400C2F200008069FFF7A2
:1054E00013FE04990320FEF7CFFDFFF7C5FC48B972
:1054F000FFE705980299884203D1FFE70020059055
:10550000FFE7FFE7FFE70498C078C00728B1FFE78F
:1055100004984169FEF748F803E0049901204870B7
:10552000FFE740F20400C2F20000406C0490ABE7D9
:105530000598FFF7E9FDFFE706B080BD0000000019
:1055400082B00190009100990198884700F000F81E
:1055500082B0FBF72DFC45F6E170C0F6000001902B
:10556000DDF804C000DF00204FF0FF31FBF714FC32
:10557000FFE7FEE70000000080B588B002900191CF
:1055800002980199FBF72CFCFDF71AF820B9FFE708
:10559000FDF76AF830B1FFE702980199FEF748FB82
:1055A000009015E0029901980791069007980590E0
:1055B0000698049046F26900C0F600000390DDF8FA
:1055C0000CC00598049900DF059005980090FFE74E
:1055D000009808B080BD000080B58CB004900391A5
:1055E000029204980399029AFBF752FCFCF7E8FF39
:1055F00020B9FFE7FDF738F848B1FFE70020009039
:105600006FF00501FBF7C8FB009801901AE0049ABF
:10561000039902980B920A9109900B9808900A98A6
:1056200007900998069046F24110C0F600000590D8
:10563000DDF814C008980799069A00DF08900898CA
:105640000190FFE701980CB080BD00000000000051
:1056500080B586B00490049840B9FFE76FF003006E
:105660000290FBF719F90298059016E004991320AF
:10567000FFF7DAFD30B1FFE70498FBF719F90020D6
:10568000039007E04FF0FF300190FBF705F9019818
:105690000390FFE703980590FFE7059806B080BDEB
:1056A00080B582B0FEF710FD01900198FBF738F944
:1056B000019802B080BD000080B582B040F20400C5
:1056C000C2F200000190C068FBF73AF90198C06887
:1056D00002B080BD0000000080B58CB040F2040034
:1056E000C2F20000007A012805D1FFE7FBF744F978
:1056F00000200B906FE140F20400C2F20000007A3B
:1057000040B1FFE74FF0FF300A90FBF7F1F80A983D
:105710000B9060E140F20400C2F2000009900830F2
:105720009C21FAF737FE099A46F2D061C0F60001D3
:10573000C868D065088AA2F8540088681064C86AEE
:10574000096BFEF7D5FD60B1FFE746F2D060C0F609
:105750000000C06A40F20401C2F20001C1F88000FA
:10576000FFE746F2D061C0F6000148698969FEF79B
:10577000BFFD58B1FFE746F2D060C0F600004069B7
:1057800040F20401C2F20001486707E040F2040160
:10579000C2F20001D1F880004867FFE746F2D0610D
:1057A000C0F60001C869096AFEF7A2FD58B1FFE71B
:1057B00046F2D060C0F60000C06940F20401C2F2B7
:1057C0000001886707E040F20401C2F20001D1F84D
:1057D00080008867FFE746F2D061C0F60001486AA2
:1057E000896AFEF785FD58B1FFE746F2D060C0F642
:1057F0000000406A40F20401C2F20001C86707E0FD
:1058000040F20401C2F20001D1F88000C867FFE74E
:1058100046F2D060C0F60000406BA0B1FFE746F250
:10582000D060C0F600000890406B01688268C368D1
:10583000FEF706FE0898406B40F20401C2F2000138
:10584000C1F88400FFE746F2D060C0F60000806B2C
:10585000A0B1FFE746F2D060C0F600000790806B71
:1058600001688268C368FEF7EBFD0798806B40F221
:105870000401C2F20001C1F88800FFE746F2D060DF
:10588000C0F60000C06BA0B1FFE746F2D060C0F6E2
:1058900000000690C06B01688268C368FEF7D0FD07
:1058A0000698C06B40F20401C2F20001C1F88C00FE
:1058B000FFE746F2D060C0F60000006CA0B1FFE741
:1058C00046F2D060C0F600000590006C0168826866
:1058D000C368FEF7B5FD0598006C40F20401C2F202
:1058E0000001C1F89000FFE746F2D060C0F600006A
:1058F000406CA0B1FFE746F2D060C0F60000049013
:10590000406C01688268C368FEF79AFD0498406C99
:1059100040F20401C2F20001C1F89400FFE746F230
:10592000D060C0F60000806CA0B1FFE746F2D06006
:10593000C0F600000390806C01688268C368FEF7BF
:105940007FFD0398806C40F20401C2F20001C1F8AF
:105950009800FFE746F2D060C0F60000C06CA0B12E
:10596000FFE746F2D060C0F600000290C06C01680C
:105970008268C368FEF764FD0298C06C40F20401BF
:10598000C2F20001C1F89C00FFE746F2D060C0F609
:105990000000006DA0B1FFE746F2D060C0F6000045
:1059A0000190006D01688268C368FEF749FD0198A7
:1059B000006D40F20401C2F20001C1F8A000FFE74F
:1059C00040F20401C2F2000101200872FAF7D4FF8C
:1059D00000200B90FFE70B980CB080BD000000008A
:1059E00080B586B040F20400C2F20000007A0128BF
:1059F00008D0FFE76FF00700FAF77AFF4FF0FF30AB
:105A000005903CE0FFF7ACFB40B9FFE74FF0FF30FB
:105A10000390FAF76DFF0398059030E0FDF7E0F88A
:105A200046F2D060C0F60000406840F2BD21C0F6EA
:105A30000001FDF795F840B1FFE74FF0FF3002900D
:105A4000FAF756FF0298059019E0FDF785F840F245
:105A50000401C2F2000101910861FDF75DF80198AF
:105A60001C30FFF739FA04900498FFF7C5FB019941
:105A700002200872FAF798FF00200590FFE70598CA
:105A800006B080BD0000000080B58EB00C900B9178
:105A90000A9209930C98FEF72FFD08900898FCF7DE
:105AA000FBFD40B1FFE708980078FA2803D1FFE733
:105AB0000B9848B9FFE708986FF003010291FBF7D4
:105AC0001BF802980D9090E00898FCF775FF07907E
:105AD000079800285CD0FFE708980799FCF7F0FFCB
